:0400000007EF00F016
:0A0008005E8205ED1AF01FEF1DF0F7
:10080000000000803F000020410000C84200007A44
:100810004400401C460050C3470024744980961889
:100820004B20BCBE4C286B6E4EF9021550EC78ADD7
:1008300060CAF249710000803FCDCCCC3D0AD7237D
:100840003C6F12833A17B7D138ACC52737BD37860E
:100850003595BFD63377CC2B325F708930FFE6DB1E
:100860002E08E53C1E6042A20D010000000A0000B7
:100870000064000000E803000010270000A08601CB
:100880000040420F008096980000E1F50500CA9AEA
:050890003B256600009D
:10089600550E0001A06F000EA16F29D3250EB419C5
:1008A600D8B407D051C0D9FF52C0DAFFB4C0DFFFB9
:1008B6001CD3000EA36F000EA26F02D0A38511D029
:1008C60053C0F6FF54C0F7FF534A542A0800F5CF29
:1008D600B4F0B451000AD8B416D3660AD8B4EED729
:1008E60006D3070EA315D8B4F0D2000EA56F060ED8
:1008F600A46FA0C0D9FFA1C0DAFFDECFB0F0DECF73
:10090600B1F0DECFB2F0DECFB3F0040EA027000EBA
:10091600A123B3AF15D0B0C001F0B1C002F0B2C090
:1009260003F0B3C004F008EC1DF001C0B0F002C043
:10093600B1F003C0B2F004C0B3F0030E0001A2137D
:10094600000EAB6F000EAA6FB051B111B211B31108
:10095600D8B482D0B235B335820FAA6FAB6BFF0E17
:10096600AB23AA07D8A0AB07AAC001F0ABC002F020
:10097600000E046E030E036E9CEC1DF001C0AAF07F
:1009860002C0ABF0AAC007F0ABC008F0000E0A6EBA
:100996000A0E096E6CEC1BF007C0AAF008C0ABF09B
:1009A6000001ABAF03D0AA07D8A0AB07AA51000835
:1009B600B4EC09F028C0ACF029C0ADF02AC0AEF006
:1009C6002BC0AFF0ACC00FF0ADC010F0AEC011F050
:1009D600AFC012F0B0C013F0B1C014F0B2C015F041
:1009E600B3C016F079EC0DF00FC0ACF010C0ADF04E
:1009F60011C0AEF012C0AFF0ACC001F0ADC002F055
:100A0600AEC003F0AFC004F0000E056E000E066E19
:100A1600800E076E3F0E086E75EC19F0D8B005D043
:100A26000001AA07D8A0AB0717D0ACC001F0ADC033
:100A360002F0AEC003F0AFC004F0000E056E000E6B
:100A4600066E200E076E410E086E75EC19F0D8A0E2
:100A560003D00001AA4BAB2B0001A5BF06D0A551C0
:100A660021E10D0EA45DD8B01DD0B0C035F0B1C0E7
:100A760036F0B2C037F0B3C038F0A4511AEC12F019
:100A860028C039F029C03AF02AC03BF02BC03CF010
:100A960021EC0FF035C0B0F036C0B1F037C0B2F07F
:100AA60038C0B3F00001ABBF06D0AB5123E10A0E4C
:100AB600AA5DD8B01FD0B051B111B211B311D8B4DC
:100AC60064D0B0C031F0B1C032F0B2C033F0B3C0C0
:100AD60034F092EC1AF03150321033103410D8A49E
:100AE60054D00001ABBF51D0AB5104E1020EAA5D58
:100AF600D8A04BD0ACC001F0ADC002F0AEC003F040
:100B0600AFC004F05F0E056E700E066E890E076E9E
:100B1600400E086E75EC19F0D8B003D00001F70E40
:100B260002D00001F80EAA27FF0EAB23AA51B4EC9F
:100B360009F028C0ACF029C0ADF02AC0AEF02BC039
:100B4600AFF0B0C001F0B1C002F0B2C003F0B3C064
:100B560004F0ACC005F0ADC006F0AEC007F0AFC003
:100B660008F050EC18F001C0A6F002C0A7F003C0D0
:100B7600A8F004C0A9F0000E0001B06F000EB16F1E
:100B8600000EB26F000EB36F3CD0B0C031F0B1C0F2
:100B960032F0B2C033F0B3C034F092EC1AF031C088
:100BA600A6F032C0A7F033C0A8F034C0A9F0B0C098
:100BB60049F0B1C04AF0B2C04BF0B3C04CF0A6C089
:100BC60001F0A7C002F0A8C003F0A9C004F0000E0F
:100BD6000FEC17F001C04DF002C04EF003C04FF00D
:100BE60004C050F086EC1CF049C0B0F04AC0B1F029
:100BF6004BC0B2F04CC0B3F0000E0001AB6F000E5C
:100C0600AA6F010EB46F0A0EB419D8B418D0B45135
:100C1600040D690EF324F66E080EF420F76E090033
:100C2600F550A65D0900F550A7590900F550A859D9
:100C36000900F550A959D8A002D0B42BE4D7030E69
:100C4600A215596E000EA3155A6E59505A10D8B4F3
:100C560050D051C0D9FF52C0DAFF2D0E47D0A6C0E2
:100C660001F0A7C002F0A8C003F0A9C004F0B45177
:100C7600040D690EF324F66E080EF420F76E0900D3
:100C8600F5CF05F00900F5CF06F00900F5CF07F01E
:100C96000A00F5CF08F0AEEC1BF001C0ACF002C0C4
:100CA600ADF003C0AEF004C0AFF0ACC001F0ADC013
:100CB60002F0AEC003F0AFC004F00A0E056E000EDF
:100CC600066E000E076E000E086E27EC1CF001C0C3
:100CD600ACF002C0ADF003C0AEF004C0AFF000014E
:100CE600AC51300F51C0D9FF52C0DAFFDF6E514A06
:100CF600522AB407B429D8B40CD0B1D751C0D9FF01
:100D060052C0DAFF300EDF6E514A522AAA07D8A027
:100D1600AB07ABBF05D0AB51F1E1AA05D8B0EED712
:100D2600A5BF09D0A55104E1090EA45DD8A003D042
:100D3600080EB46F02D0A4C0B4F0B451A45F000E84
:100D4600B4BFFF0EA55BB451D8B408D051C0D9FFCB
:100D560052C0DAFF2E0EDF6E514A522AB451B4EC5D
:100D660009F028C09CF029C09DF02AC09EF02BC037
:100D76009FF0B0C013F0B1C014F0B2C015F0B3C00C
:100D860016F09CC00FF09DC010F09EC011F09FC0E1
:100D960012F079EC0DF00FC031F010C032F011C036
:100DA60033F012C034F092EC1AF031C0A6F032C023
:100DB600A7F033C0A8F034C0A9F071D0A6C001F0E6
:100DC600A7C002F0A8C003F0A9C004F00001B45106
:100DD600040D690EF324F66E080EF420F76E090072
:100DE600F5CF05F00900F5CF06F00900F5CF07F0BD
:100DF6000A00F5CF08F0AEEC1BF001C0ACF002C063
:100E0600ADF003C0AEF004C0AFF0ACC001F0ADC0B1
:100E160002F0AEC003F0AFC004F00A0E056E000E7D
:100E2600066E000E076E000E086E27EC1CF001C061
:100E3600ACF002C0ADF003C0AEF004C0AFF00001EC
:100E4600AC51300F51C0D9FF52C0DAFFDF6E514AA4
:100E5600522AA6C001F0A7C002F0A8C003F0A9C09C
:100E660004F0B451040D690EF324F66E080EF42056
:100E7600F76E0900F5CF05F00900F5CF06F0090079
:100E8600F5CF07F00A00F5CF08F027EC1CF001C0FB
:100E9600A6F002C0A7F003C0A8F004C0A9F00001A4
:100EA600B407B429D8B40CD089D751C0D9FF52C0E1
:100EB600DAFF300EDF6E514A522AA407D8A0A507E2
:100EC600A451A511D8B413D0F0D7030EA215596EAC
:100ED600000EA3155A6E59505A10D8B408D051C0F6
:100EE600D9FF52C0DAFF2D0EDF6E514A522A53C087
:100EF600F6FF54C0F7FF534A542A0800F5CFB4F062
:100F0600B451D8A4CBD451C0D9FF52C0DAFF000ED9
:100F1600DF6E120001011B511C11D8B40CD01BC18D
:100F2600D9FF1CC1DAFF19C1DEFF1AC1DDFF03D0EC
:100F36000101194B1A2B19C1D9FF1AC1DAFFDF506B
:100F46001E6F1E514BEC1DF0D8B0F2D7000E0101FA
:100F56001F6F2D0E1E19D8A403D0010E1F6F04D0CB
:100F66002B0E1E19D8A402D0194B1A2B000E1E6F79
:100F7600000E216F000E226F000E236F000E246FED
:100F8600000E206F1FB90AD019C1D9FF1AC1DAFFA6
:100F96002E0EDE18D8A402D01F893ED019C1D9FF63
:100FA6001AC1DAFFDF50C1EC1DF0D8A038D001011C
:100FB6001F83090E1E19D8B42DD01FB920071E2B6A
:100FC60021C100F122C101F123C102F124C103F1C3
:100FD6000A0E046F000E056F000E066F000E076FF7
:100FE6005AEC1CF000C121F101C122F102C123F12A
:100FF60003C124F119C1D9FF1AC1DAFFDF5001017B
:101006001D6FD00E1D271D512127000E22232323DD
:10101600242302D01FA9202B194B1A2BB3D7000E5D
:1010260001011E6F19C1D9FF1AC1DAFF650EDE185C
:10103600D8B408D019C1D9FF1AC1DAFF450EDE1897
:10104600D8A462D0194B1A2B19C1D9FF1AC1DAFFDD
:101056002D0EDE18D8A402D01F8708D019C1D9FFDB
:101066001AC1DAFF2B0EDE18D8A402D0194B1A2BA0
:1010760019C1D9FF1AC1DAFF300EDE18D8B4F6D777
:1010860019C1D9FF1AC1DAFFDF50C1EC1DF0D8A093
:1010960038D019C1D9FF1AC1DAFFDF50D00F0101CC
:1010A6001E6F194B1A2B19C1D9FF1AC1DAFFDF506F
:1010B600C1EC1DF0D8A025D019C1D9FF1AC1DAFF9D
:1010C600DF5001011D6F1E510A0DF3501D25D00F73
:1010D6001E6F194B1A2B19C1D9FF1AC1DAFFDF503F
:1010E600C1EC1DF0D8A00DD019C1D9FF1AC1DAFF85
:1010F600DF5001011D6F1E510A0DF3501D25D00F43
:101106001E6F01011FB71E6D1E5120271B511C119A
:10111600D8A41FA308D01BC1D9FF1CC1DAFF19C16F
:10112600DEFF1AC1DDFF21C100F122C101F123C199
:1011360002F124C103F1010E65EC16F000C121F1A4
:1011460001C122F102C123F103C124F101012151A0
:10115600221123112411D8A409D0000E196F000EF4
:101166001A6F000E1B6F000E1C6F120020AF6DD0A1
:10117600206D1DD021C100F122C101F123C102F170
:1011860024C103F1F90E046F020E056F150E066FEA
:10119600500E076FBFEC10F000C121F101C122F122
:1011A60002C123F103C124F1F60E010120272051CB
:1011B600800A760FD8A01DD0DDD721C100F122C14B
:1011C60001F123C102F124C103F1000E046F000EE8
:1011D600056F200E066F410E076FBFEC10F000C1C1
:1011E60021F101C122F102C123F103C124F1010160
:1011F60020072051D8A4E1D721C100F122C101F175
:1012060023C102F124C103F1000E046F000E056F25
:10121600800E066F000E076FE4EC18F00101D8B0DF
:1012260083D01FA109D0000E196F000E1A6F800E11
:101236001B6F800E1C6F1200000E196F000E1A6FC6
:10124600800E1B6F000E1C6F12002051800A7F0F4C
:10125600D8B01ED069D021C100F122C101F123C14D
:1012660002F124C103F1F90E046F020E056F150E8B
:10127600066F500E076FD0EC0BF000C121F101C1D3
:1012860022F102C123F103C124F1F60E0101202748
:101296000A0E2061E0D71CD021C100F122C101F164
:1012A60023C102F124C103F1000E046F000E056F85
:1012B600200E066F410E076FD0EC0BF000C121F136
:1012C60001C122F102C123F103C124F1010120076A
:1012D6002051D8A4E1D7FF0E006FFF0E016F7F0EDD
:1012E600026F7F0E036F21C104F122C105F123C1F4
:1012F60006F124C107F1E4EC18F00101D8B014D0CE
:101306001FA109D0000E196F000E1A6F800E1B6FF9
:10131600800E1C6F1200000E196F000E1A6F800EE1
:101326001B6F000E1C6F12001FA112D021C100F10D
:1013360022C101F123C102F124C103F1C1EC1CF069
:1013460000C121F101C122F102C123F103C124F13F
:1013560021C119F122C11AF123C11BF124C11CF1CB
:101366001200306E30AE0DD1306C3050800A120F44
:10137600D8A098D0000E0A6E0A0E096E000E046EF2
:10138600640E036E3050016E026A01BE0206EFEC77
:101396001BF001C007F002C008F06CEC1BF0D890FF
:1013A60007360836D89007360836240E0726000E6C
:1013B6000822350E0724F66E080E0820F76E09007F
:1013C600F5CF13F00900F5CF14F00900F5CF15F0AD
:1013D6000A00F5CF16F0000E0A6E640E096E305044
:1013E600076E086A07BE08066CEC1BF0D890073635
:1013F6000836D89007360836480E0726000E08220B
:10140600350E0724F66E080E0820F76E0900F5CF94
:101416000FF00900F5CF10F00900F5CF11F00A0022
:10142600F5CF12F079EC0DF00FC02CF010C02DF0B6
:1014360011C02EF012C02FF02CC00FF02DC010F0EE
:101446002EC011F02FC012F0000E046E0A0E036EAD
:101456003050016E026A01BE0206EFEC1BF0D89016
:1014660001360236D89001360236350E0124F66E64
:10147600080E0220F76E0900F5CF13F00900F5CF2C
:1014860014F00900F5CF15F00A00F5CF16F079EC47
:101496000DF00FC028F010C029F011C02AF012C0BC
:1014A6002BF012003050800A750FD8A055D0000ED0
:1014B6000A6E0A0E096E3050076E086A07BE0806E5
:1014C6006CEC1BF0D89007360836D89007360836ED
:1014D600240E0726000E0822350E0724F66E080E87
:1014E6000820F76E0900F5CF0FF00900F5CF10F0D0
:1014F6000900F5CF11F00A00F5CF12F0000E046EC8
:101506000A0E036E3050016E026A01BE0206EFEC4F
:101516001BF0D89001360236D89001360236350EC9
:101526000124F66E080E0220F76E0900F5CF13F0BF
:101536000900F5CF14F00900F5CF15F00A00F5CF34
:1015460016F079EC0DF00FC028F010C029F011C08C
:101556002AF012C02BF012003050040D350EF32481
:10156600F66E080EF420F76E0900F5CF28F0090094
:10157600F5CF29F00900F5CF2AF00A00F5CF2BF0B8
:1015860012003050800A120FD8A098D0000E0A6EB2
:101596000A0E096E000E046E640E036E3050016E64
:1015A600026A01BE0206EFEC1BF001C007F002C0A2
:1015B60008F06CEC1BF0D89007360836D890073642
:1015C6000836240E0726000E0822010E0724F66EA2
:1015D600080E0820F76E0900F5CF13F00900F5CFC5
:1015E60014F00900F5CF15F00A00F5CF16F0000E3D
:1015F6000A6E640E096E3050076E086A07BE08064A
:101606006CEC1BF0D89007360836D89007360836AB
:10161600480E0726000E0822010E0724F66E080E55
:101626000820F76E0900F5CF0FF00900F5CF10F08E
:101636000900F5CF11F00A00F5CF12F079EC0DF0A4
:101646000FC02CF010C02DF011C02EF012C02FF0DC
:101656002CC00FF02DC010F02EC011F02FC012F0CC
:10166600000E046E0A0E036E3050016E026A01BE51
:101676000206EFEC1BF0D89001360236D890013600
:101686000236010E0124F66E080E0220F76E0900DE
:10169600F5CF13F00900F5CF14F00900F5CF15F0DA
:1016A6000A00F5CF16F079EC0DF00FC028F010C047
:1016B60029F011C02AF012C02BF012003050800A17
:1016C600750FD8A055D0000E0A6E0A0E096E30505E
:1016D600076E086A07BE08066CEC1BF0D890073642
:1016E6000836D89007360836240E0726000E08223C
:1016F600010E0724F66E080E0820F76E0900F5CFD6
:101706000FF00900F5CF10F00900F5CF11F00A002F
:10171600F5CF12F0000E046E0A0E036E3050016E05
:10172600026A01BE0206EFEC1BF0D89001360236C3
:10173600D89001360236010E0124F66E080E0220FC
:10174600F76E0900F5CF13F00900F5CF14F0090084
:10175600F5CF15F00A00F5CF16F079EC0DF00FC0B5
:1017660028F010C029F011C02AF012C02BF0120088
:101776003050040D010EF324F66E080EF420F76EB9
:101786000900F5CF28F00900F5CF29F00900F5CFBB
:101796002AF00A00F5CF2BF0120001010351800B4D
:1017A6000C6F03510325126F02BF12811251D8B478
:1017B6000DD01229D8A408D0000E006F000E016FBC
:1017C600000E026F000E036F028F08D0000E006F2E
:1017D600000E016F000E026F000E036F0751800BA3
:1017E6000C1B075107250D6F06BF0D810D51D8B48F
:1017F6000DD00D29D8A408D0000E046F000E056F79
:10180600000E066F000E076F068F08D0000E046FDD
:10181600000E056F000E066F000E076F0D51D8B44F
:1018260003D01251D8A409D0000E006F000E016F2C
:10183600000E026F000E036F120006510003F3CF75
:1018460017F1F4CF18F117510E6F0F6B106B116B68
:101856001851136F146B156B166B05510103F3CFFB
:1018660017F1F4CF18F117510E27000E0F2310238E
:10187600112318511327000E142315231623045180
:101886000203F3CF17F1F4CF18F117510E27000E0C
:101896000F231023112318511327000E1423152389
:1018A600162310C111F10FC110F10EC10FF10E6B0D
:1018B60004510103F3CF17F1F4CF18F117510E2796
:1018C60018510F23000E1023000E1123055100039B
:1018D600F3CF17F1F4CF18F117510E2718510F2334
:1018E600000E1023000E112310C111F10FC110F1CB
:1018F6000EC10FF10E6B04510003F3CF17F1F4CFB5
:1019060018F117510E2718510F23000E1023000E41
:10191600112306510103F3CF17F1F4CF18F1175134
:10192600132718511423000E1523000E16230551F4
:101936000203F3CF17F1F4CF18F1175113271851FB
:101946001423000E1523000E162306510203F3CFAF
:1019560017F1F4CF18F11751086F1851096F0A6B78
:101966000B6B0AC10BF109C10AF108C109F1086B39
:1019760008511327095114230A5115230B51162315
:101986000EC108F10FC109F110C10AF111C10BF125
:10199600190E05D0D8900B330A3309330833E82ED5
:1019A600F9D708511327095114230A5115230B514E
:1019B600162310C111F10FC110F10EC10FF10E6BFC
:1019C6000D5112C108F1096B0827000E0923820E7A
:1019D6000825176FFF0E0921186F0FD0D8901337FF
:1019E60014371537163711BF1381D8900E370F37B6
:1019F600103711371707D8A0180715AFEFD7000E05
:101A06000D6F11AF16D0FF0E0E15086FFF0E0F15D6
:101A1600096FFF0E10150A6F7F0E11150B6F085117
:101A260009110A110B11D8A402D013A102D0010E7C
:101A36000D6F0D51D8B41FD0010E1327000E1423BD
:101A46001523162316A117D013C108F114C109F1E5
:101A560015C10AF116C10BF10B350B330A330933E5
:101A6600083308C113F109C114F10AC115F10BC1FC
:101A760016F1174B182B18BF0DD0185103E1172973
:101A8600D8A008D0000E136F000E146F800E156FCD
:101A96007F0E20D018BF05D018510EE11705D8B01B
:101AA6000BD0000E136F000E146F000E156F000E94
:101AB600166F000E0C6F0FD017C112F1FF0E131721
:101AC600FF0E14177F0E1517000E161712B1158F7D
:101AD600D8901231166F0C51161313C100F114C1B0
:101AE60001F115C102F116C103F112001250800B6B
:101AF6001B6E12501224216E11BE21802150D8B4C3
:101B06000DD02128D8A408D0000E0F6E000E106E3E
:101B1600000E116E000E126E118E08D0000E0F6EA2
:101B2600000E106E000E116E000E126E1650800B17
:101B36001B1A165016241C6E15BE1C801C50D8B4D9
:101B46000DD01C28D8A408D0000E136E000E146EFB
:101B5600000E156E000E166E158E08D0000E136E52
:101B6600000E146E000E156E000E166E1C50D8B4C4
:101B760003D02150D8A409D0000E0F6E000E106EAF
:101B8600000E116E000E126E120015500F02F3CFEA
:101B960026F0F4CF27F026501D6E1E6A1F6A206AB3
:101BA6002750226E236A246A256A14501002F3CF46
:101BB60026F0F4CF27F026501D26000E1E221F22E7
:101BC600202227502226000E2322242225221350CB
:101BD6001102F3CF26F0F4CF27F026501D26000E73
:101BE6001E221F22202227502226000E23222422D4
:101BF60025221FC020F01EC01FF01DC01EF01D6A4A
:101C060013501002F3CF26F0F4CF27F026501D26EE
:101C160027501E22000E1F22000E202214500F02F3
:101C2600F3CF26F0F4CF27F026501D2627501E228C
:101C3600000E1F22000E20221FC020F01EC01FF023
:101C46001DC01EF01D6A13500F02F3CF26F0F4CF0D
:101C560027F026501D2627501E22000E1F22000E9A
:101C6600202215501002F3CF26F0F4CF27F026508D
:101C7600222627502322000E2422000E252214504D
:101C86001102F3CF26F0F4CF27F026502226275054
:101C96002322000E2422000E252215501102F3CF16
:101CA60026F0F4CF27F02650176E2750186E196AC3
:101CB6001A6A19C01AF018C019F017C018F0176A76
:101CC6001750222618502322195024221A50252252
:101CD6001DC017F01EC018F01FC019F020C01AF062
:101CE600190E05D0D8901A32193218321732E82E4A
:101CF600F9D71750222618502322195024221A5099
:101D060025221FC020F01EC01FF01DC01EF01D6A38
:101D16001C5021C017F0186A1726000E1822820ED2
:101D26001724266EFF0E1820276E0FD0D890223665
:101D360023362436253620BE2280D8901D361E3600
:101D46001F3620362606D8A0270624AEEFD7000E6B
:101D56001C6E20AE16D0FF0E1D14176EFF0E1E143D
:101D6600186EFF0E1F14196E7F0E20141A6E175070
:101D7600181019101A10D8A402D022A002D0010EF1
:101D86001C6E1C50D8B41FD0010E2226000E232232
:101D96002422252225A017D022C017F023C018F030
:101DA60024C019F025C01AF01A341A321932183222
:101DB600173217C022F018C023F019C024F01AC039
:101DC60025F0264A272A27BE0DD0275003E12628CC
:101DD600D8A008D0000E226E000E236E800E246E50
:101DE6007F0E20D027BE05D027500EE12604D8B09E
:101DF6000BD0000E226E000E236E000E246E000E17
:101E0600256E000E1B6E0FD026C021F0FF0E221687
:101E1600FF0E23167F0E2416000E251621B0248EE3
:101E2600D8902130256E1B50251222C00FF023C0FA
:101E360010F024C011F025C012F012003850800BAB
:101E4600456E38503824476E37BE47804750D8B461
:101E56000DD04728D8A408D0000E356E000E366E79
:101E6600000E376E000E386E378E06D0000E356EB9
:101E7600000E366E000E376E000E386E3C50800B2C
:101E8600466E45504618D8A4458C3C503C24466EB8
:101E96003BBE46804650D8B40DD04628D8A408D0BC
:101EA600000E396E000E3A6E000E3B6E000E3C6E52
:101EB6003B8E06D0000E396E000E3A6E000E3B6E5B
:101EC600000E3C6E4750465CD8B022D045AC02D0DE
:101ED600800E451A47C048F046C047F048C046F055
:101EE60035C048F039C035F048C039F036C048F042
:101EF6003AC036F048C03AF037C048F03BC037F039
:101F060048C03BF038C048F03CC038F048C03CF010
:101F1600000E486E47503D6E3E6A3D1E3E1E3D4ACF
:101F26003E2A46503F6E406A3D503F263E50402274
:101F360040BE2CD0405004E11A0E3F5CD8A026D0FB
:101F46003550361037103810D8B402D0010E01D0F3
:101F5600000E486E000E356E000E366E000E376EA1
:101F6600000E386E46C047F015D048A005D0D89070
:101F760048300109486E02D0D890483235B0488EB4
:101F860038343832373236323532472A4650475C93
:101F9600D8A0EBD745BC29D04750D8A409D0000E0D
:101FA600356E000E366E000E376E000E386E12005D
:101FB600395035263A5036223B5037223C5038228B
:101FC60038A083D048A006D0D8904832485001099E
:101FD600486E02D0D890483235B0488E3834383200
:101FE600373236323532472A70D03950355C3A505E
:101FF60036583B5037583850800A3D6E3C50800A60
:102006003D58D8B036D035C03DF036C03EF037C06A
:102016003FF038C040F03D1E3E1E3F1E401E3D2A8A
:10202600000E3E223F22402239503D24416E3A5056
:102036003E20426E3B503F20436E3C504020446E53
:10204600FF0E4124356EFF0E4220366EFF0E4320F2
:10205600376EFF0E4420386E800E451A486C485085
:10206600D8A40FD0010E3526000E3622372238228C
:1020760008D03950355E3A50365A3B50375A3C50A4
:10208600385A3550361037103810D8A41CD048505E
:10209600D8A419D0000E356E000E366E000E376EBF
:1020A600000E386E1200D89035363636373638364A
:1020B60048BE358048A002D0D88001D0D890483696
:1020C6004750D8A4470637AEEED7000E466E48AE48
:1020D6000AD048C03DF07F0E3D16D8A402D035A0E8
:1020E60002D0010E466E4650D8B420D0010E3526D9
:1020F600000E36223722382238A018D035C03DF0DF
:1021060036C03EF037C03FF038C040F04034403271
:102116003F323E323D323DC035F03EC036F03FC024
:1021260037F040C038F04728D8A4472A4728D8B403
:1021360003D04750D8A40DD0000E356E000E366E73
:10214600000E376E000E386E4750D8A402D0000E2F
:10215600456E47A002D0378E01D0379ED8904730C3
:10216600386E45BE388E35C035F036C036F037C0CD
:1021760037F038C038F0120001010351800B0C6FA4
:1021860003510325176F02BF17811751D8B40DD01D
:102196001729D8A408D0000E006F000E016F000E9C
:1021A600026F000E036F028F06D0000E006F000E46
:1021B600016F000E026F000E036F0751800B0C1BA0
:1021C60007510725186F06BF18811851D8B40DD0CE
:1021D6001829D8A408D0000E046F000E056F000E53
:1021E600066F000E076F068F06D0000E046F000EF6
:1021F600056F000E066F000E076F045105110611DC
:102206000711D8A415D0000E006F000E016F000E46
:10221600026F000E036F800E02137F0E031300C1C0
:1022260000F101C101F102C102F103C103F1120083
:102236001751D8A411D0000E006F000E016F000ECA
:10224600026F000E036F00C100F101C101F102C16E
:1022560002F103C103F112001851086F096B081F40
:10226600091F084B092B17510A6F0B6B08510A27D8
:1022760009510B237F0E0A25116F000E0B21126FD9
:1022860000C10DF101C10EF102C10FF103C110F140
:10229600000E006F000E016F000E026F000E036F3E
:1022A600000E136F000E146F000E156F000E166FE2
:1022B600000E186F28D01851D8B411D0D8900D3709
:1022C6000E370F371037D8900037013702370337EC
:1022D60016BF0081D89013371437153716370451B7
:1022E6000D5D05510E5906510F5907511059D8A0C9
:1022F60009D0168D04510D5F05510E5B06510F5B1B
:102306000751105B182B190E1865D5D70D510E11F4
:102316000F111011D8B411D013810FD0D8900037F7
:1023260001370237033716BF0081D89013371437A9
:10233600153716371107D8A0120702AFEFD7000ED0
:10234600186F16AF16D0FF0E1315086FFF0E141573
:10235600096FFF0E15150A6F7F0E16150B6F0851C4
:1023660009110A110B11D8A402D000A102D0010E46
:10237600186F1851D8B41FD0010E0027000E012384
:102386000223032303A117D000C108F101C109F1FB
:1023960002C10AF103C10BF10B350B330A330933C2
:1023A600083308C100F109C101F10AC102F10BC1EC
:1023B60003F1114B122B12BF10D0125103E1112958
:1023C600D8A00BD0000E126F1169000E006F000E20
:1023D600016F000E026F000E036F12BF05D012517F
:1023E60011E11105D8B00ED0000E126F000E116F5C
:1023F600000E006F000E016F000E026F000E036FDD
:10240600000E0C6F11C117F117A102D0028F01D077
:10241600029FD8901731036F0C51031300C100F1CE
:1024260001C101F102C102F103C103F11200346ED0
:102436006D0E3464ACD0000E0A6E0A0E096E000EE4
:10244600046E640E036E34C001F0026AEFEC1BF0FA
:1024560001C007F002C008F06CEC1BF0D8900736FC
:102466000836D89007360836240E0726000E0822AE
:10247600350E0724F66E080E0820F76E0900F5CF14
:1024860013F00900F5CF14F00900F5CF15F00A0096
:10249600F5CF16F0000E0A6E640E096E34C007F012
:1024A600086A6CEC1BF0D89007360836D8900736C9
:1024B6000836480E0726000E0822350E0724F66E4B
:1024C600080E0820F76E0900F5CF0FF00900F5CFCA
:1024D60010F00900F5CF11F00A00F5CF12F079ECF3
:1024E6000DF00FC030F010C031F011C032F012C044
:1024F60033F0000E046E0A0E036E34C001F0026A59
:10250600EFEC1BF0D89001360236D8900136023631
:10251600350E0124F66E080E0220F76E0900F5CF7F
:1025260013F00900F5CF14F00900F5CF15F00A00F5
:10253600F5CF16F030C00FF031C010F032C011F0F8
:1025460033C012F079EC0DF00FC02CF010C02DF056
:1025560011C02EF012C02FF02CC00FF02DC010F0BD
:102566002EC011F02FC012F0000E136E000E146E66
:10257600000E156E3F0E166E79EC0DF00FC028F0AA
:1025860010C029F011C02AF012C02BF012000A0E5A
:1025960034646BD0000E046E0A0E036E34C001F074
:1025A600026AEFEC1BF0D89001360236D89001365D
:1025B6000236350E0124F66E080E0220F76E09006B
:1025C600F5CF13F00900F5CF14F00900F5CF15F09B
:1025D6000A00F5CF16F0000E0A6E0A0E096E34C018
:1025E60007F0086A6CEC1BF0D89007360836D890CE
:1025F60007360836240E0726000E0822350E072455
:10260600F66E080E0820F76E0900F5CF0FF00900E8
:10261600F5CF10F00900F5CF11F00A00F5CF12F052
:1026260079EC0DF00FC030F010C031F011C032F06F
:1026360012C033F030C00FF031C010F032C011F0CC
:1026460033C012F0000E136E000E146E000E156EDF
:102656003F0E166E79EC0DF00FC028F010C029F071
:1026660011C02AF012C02BF012003450040D350EA2
:10267600F324F66E080EF420F76E0900F5CF0FF07E
:102686000900F5CF10F00900F5CF11F00A00F5CFDB
:1026960012F0000E136E000E146E000E156E3F0E35
:1026A600166E79EC0DF00FC028F010C029F011C09D
:1026B6002AF012C02BF01200000E01010D6FF9EC8A
:1026C6001DF001010B6F0D51010D300EF324D96E73
:1026D600010EF420DA6E0BC1DFFF000E0C6F0B0E3D
:1026E600036F010E046F89EC1DF001010D51D8A492
:1026F6002DD02D0E3019D8B404D02B0E3019D8A4F5
:1027060025D02D0E3019D8A40BD000019951D8A48C
:1027160002D0010E9A6F9951D8B402D0010E9B6F68
:10272600F9EC1DF001010B6F0D51010D300EF32474
:10273600D96E010EF420DA6E0BC1DFFF000E0C6FAE
:102746000B0E036F010E046F89EC1DF001010D2BBA
:10275600FF0E066FFF0E076F0D51086F096B0651CE
:10276600082707510923300E0825D96E010E0921C5
:10277600DA6E2B0EDE18D8B454D0FF0E066FFF0E9D
:10278600076F0D51086F096B06510827075109237A
:10279600300E0825D96E010E0921DA6E3D0EDE18BF
:1027A600D8B43FD0FF0E066FFF0E076F0D51086FAE
:1027B600096B0651082707510923300E0825D96EE3
:1027C600010E0921DA6E2D0EDE18D8B42AD0FF0EBE
:1027D600066FFF0E076F0D51086F096B065108272C
:1027E60007510923300E0825D96E010E0921DA6E2C
:1027F6002F0EDE18D8B415D0FF0E066FFF0E076F2A
:102806000D51086F096B0651082707510923300E31
:102816000825D96E010E0921DA6E780EDE18D8A4C5
:102826004ED7FF0E066FFF0E076F0D51086F096B2F
:102836000651082707510923300E0825D96E010EC7
:102846000921DA6E2B0EDE18D8B43FD0FF0E066FC4
:10285600FF0E076F0D51086F096B065108270751C8
:102866000923300E0825D96E010E0921DA6E2D0EC8
:10287600DE18D8B42AD0FF0E066FFF0E076F0D5173
:10288600086F096B0651082707510923300E0825E2
:10289600D96E010E0921DA6E2F0EDE18D8B415D0C6
:1028A600FF0E066FFF0E076F0D51086F096B06517D
:1028B600082707510923300E0825D96E010E092174
:1028C600DA6E780EDE18D8A413D0FF0E066FFF0E50
:1028D600076F0D51086F096B065108270751092329
:1028E600300E0825D96E010E0921DA6EDF502D6FE4
:1028F600FF0E066FFF0E076F0D51086F096B06512D
:10290600082707510923300E0825D96E010E092123
:10291600DA6E000EDF6E0001992B12008190818223
:10292600818481860D0E0101026FFB0EE82EFED713
:10293600022FFCD700D081B80BD0410E0101026FE7
:10294600EE0EE82EFED7022FFCD700F0370E12004F
:1029560081BA0BD0410E0101026FEE0EE82EFED7B2
:10296600022FFCD700F0380E120081BC0BD0410EAE
:102976000101026FEE0EE82EFED7022FFCD700F003
:10298600390E120081BE0BD0410E0101026FEE0E10
:10299600E82EFED7022FFCD700F02F0E1200818002
:1029A6008192818481860D0E0101026FFB0EE82E55
:1029B600FED7022FFCD700D081B80BD0410E010103
:1029C600026FEE0EE82EFED7022FFCD700F0340E73
:1029D600120081BA0BD0410E0101026FEE0EE82EF5
:1029E600FED7022FFCD700F0350E120081BC0BD0AB
:1029F600410E0101026FEE0EE82EFED7022FFCD724
:102A060000F0360E120081BE0BD0410E0101026F9E
:102A1600EE0EE82EFED7022FFCD700F0780E12003D
:102A260081808182819481860D0E0101026FFB0EE9
:102A3600E82EFED7022FFCD700D081B80BD0410E6E
:102A46000101026FEE0EE82EFED7022FFCD700F032
:102A5600310E120081BA0BD0410E0101026FEE0E4B
:102A6600E82EFED7022FFCD700F0320E120081BCF2
:102A76000BD0410E0101026FEE0EE82EFED7022F9B
:102A8600FCD700F0330E120081BE0BD0410E0101BF
:102A9600026FEE0EE82EFED7022FFCD700F02D0EA9
:102AA600120081808182818481960D0E0101026F60
:102AB600FB0EE82EFED7022FFCD700D081B80BD034
:102AC600410E0101026FEE0EE82EFED7022FFCD753
:102AD60000F04E0E120081BA0BD0410E0101026FBA
:102AE600EE0EE82EFED7022FFCD700F0300E1200B5
:102AF60081AC0DD010D03D0E9DEC15F0300AD8A457
:102B060002D02E0E1200818081828184819681AC52
:102B1600F2D73D0E120081BE0BD0410E0101026FAD
:102B2600EE0EE82EFED7022FFCD700F02B0E120079
:102B3600FF0E12000101016F8190818281848186DE
:102B46000D0E0101006FFB0EE82EFED7002FFCD7FD
:102B560000D081B807D0370E01010119D8B402D0D0
:102B6600370E120081BA07D0380E01010119D8B408
:102B760002D0380E120081BC07D0390E01010119AE
:102B8600D8B402D0390E120081BE07D02F0E010133
:102B96000119D8B402D02F0E12008180819281844F
:102BA60081860D0E0101006FFB0EE82EFED7002F69
:102BB600FCD700D081B807D0340E01010119D8B472
:102BC60002D0340E120081BA07D0350E0101011968
:102BD600D8B402D0350E120081BC07D0360E0101E2
:102BE6000119D8B402D0360E120081BE07D0780E75
:102BF60001010119D8B402D0780E120081808182B9
:102C0600819481860D0E0101006FFB0EE82EFED722
:102C1600002FFCD700D081B807D0310E0101011971
:102C2600D8B402D0310E120081BA07D0320E01019B
:102C36000119D8B402D0320E120081BC07D0330E6F
:102C460001010119D8B402D0330E120081BE07D09B
:102C56002D0E01010119D8B402D02D0E120081806B
:102C66008182818481960D0E0101006FFB0EE82E94
:102C7600FED7002FFCD700D081B807D04E0E010139
:102C86000119D8B402D04E0E120081BA07D0300E08
:102C960001010119D8B402D0300E120081BC07D050
:102CA6003D0E01010119D8B402D03D0E120081BEBD
:102CB60007D02B0E01010119D8B402D02B0E120039
:102CC600FF0E12000101086F01010851D8A403AFDD
:102CD6001AD000C104F101C105F102C106F103C118
:102CE60007F1041F051F061F071F042B000E0523EF
:102CF6000623072304C10AF105C10BF106C10CF135
:102D060007C10DF108D000C10AF101C10BF102C1E2
:102D16000CF103C10DF10051011102110311D8A4E8
:102D260009D0000E006F000E016F000E026F000E3C
:102D3600036F1200960E096F06D0092BD8900D333B
:102D46000C330B330A33000E0A15046F000E0B15F5
:102D5600056F000E0C15066FFE0E0D15076F04515C
:102D6600051106110711D8B40DD0E7D7092B010EAE
:102D76000A27000E0B230C230D23D8900D330C339A
:102D86000B330A33000E0A15046F000E0B15056F80
:102D9600000E0C15066FFF0E0D15076F0451051179
:102DA60006110711D8B407D0E1D70907D8900A371A
:102DB6000B370C370D370CBF03D0020E0961F5D760
:102DC60009B108D0FF0E0A17FF0E0B177F0E0C175E
:102DD600FF0E0D17D890093309C104F1056B066B78
:102DE600076B04C107F1066B056B046B04510A13EC
:102DF60005510B1306510C1307510D130851D8A496
:102E060003AF01D00D8F0AC100F10BC101F10CC156
:102E160002F10DC103F11200096E0950D8A404AEE7
:102E26001AD001C005F002C006F003C007F004C0C6
:102E360008F0051E061E071E081E052A000E06229D
:102E46000722082205C00BF006C00CF007C00DF0E3
:102E560008C00EF008D001C00BF002C00CF003C091
:102E66000DF004C00EF00150021003100410D8A497
:102E760009D0000E016E000E026E000E036E000EEB
:102E8600046E1200960E0A6E06D00A2AD8900E32EA
:102E96000D320C320B32000E0B14056E000E0C14A4
:102EA600066E000E0D14076EFE0E0E14086E05500B
:102EB600061007100810D8B40DD0E7D70A2A010E5D
:102EC6000B26000E0C220D220E22D8900E320D3249
:102ED6000C320B32000E0B14056E000E0C14066E2F
:102EE600000E0D14076EFF0E0E14086E0550061028
:102EF60007100810D8B407D0E1D70A06D8900B36C9
:102F06000C360D360E360DBE03D0020E0A60F5D70E
:102F16000AB008D0FF0E0B16FF0E0C167F0E0D160C
:102F2600FF0E0E16D8900A320AC005F0066A076A26
:102F3600086A05C008F0076A066A056A05500B129A
:102F460006500C1207500D1208500E120950D8A444
:102F560004AE01D00E8E0BC001F00CC002F00DC005
:102F660003F00EC004F0120003C009F00A6A0B6AEF
:102F76000234093601E30A800950116E1150D8A4B3
:102F860009D0000E016E000E026E000E036E000EDA
:102F9600046E120007C009F00A6A0B6A0634093685
:102FA60001E30A800950106E1050D8A409D0000E13
:102FB600016E000E026E000E036E000E046E12000D
:102FC600028EFF0E0116FF0E0216000E0316068E67
:102FD600FF0E0516FF0E0616000E0716000E0C6EE7
:102FE600000E0D6E000E0E6E000E0F6E7F0E115E41
:102FF6001050980F115E180E106ED8900C360D36C4
:103006000E360F360550015C06500258075003581D
:10301600D8A007D00550015E0650025A0750035A41
:103026000C80D890013602360336102EE6D711AE44
:1030360016D01150800A970FD8B009D0000E016E35
:10304600000E026E000E036E000E046E1200D89083
:103056000F320E320D320C32113EF9D715D0170E43
:1030660011640FD0000E016E000E026E000E036E8C
:10307600000E046E1200D8900C360D360E360F3642
:1030860011061150D8A4F7D70CC001F00DC002F0FC
:103096000EC003F00FC004F01200033404340E6EA9
:1030A6000E50D8A409D0000E016E000E026E000E5E
:1030B600036E000E046E1200073408340D6E0D50B8
:1030C600D8A409D0000E016E000E026E000E036E2B
:1030D600000E046E1200038EFF0E0116FF0E02167E
:1030E600FF0E0316000E0416078EFF0E0516FF0EC2
:1030F6000616FF0E0716000E0816000E096E000EC5
:103106000A6E000E0B6E000E0C6E7F0E0E5E0D50DC
:10311600A00F0E5E200E0D6ED89009360A360B36BD
:103126000C360550015C06500258075003580850EB
:103136000458D8A009D00550015E0650025A07501F
:10314600035A0850045A0980D890013602360336CD
:1031560004360D2EE1D70EAE16D00E50800A9F0F04
:10316600D8B009D0000E016E000E026E000E036E7E
:10317600000E046E1200D8900C320B320A3209325D
:103186000E3EF9D715D01F0E0E640FD0000E016E3D
:10319600000E026E000E036E000E046E1200D89032
:1031A60009360A360B360C360E060E50D8A4F7D75B
:1031B60009C001F00AC002F00BC003F00CC004F015
:1031C6001200000E01010015086F000E0115096FAF
:1031D600800E02150A6F7F0E03150B6F0851091139
:1031E6000A110B11D8A408D0000E006F000E016F53
:1031F600000E026F000E036F000E0415086F000E1E
:103206000515096F800E06150A6F7F0E07150B6FE1
:10321600085109110A110B11D8A408D0000E046F29
:10322600000E056F000E066F000E076F03AF1DD070
:1032360000C108F101C109F102C10AF103C10BF194
:10324600081F091F0A1F0B1F082B000E09230A233C
:103256000B23000E0825006F000E0921016F000EDA
:103266000A21026F800E0B21036F07AF1DD004C128
:1032760008F105C109F106C10AF107C10BF1081FE2
:10328600091F0A1F0B1F082B000E09230A230B23F5
:10329600000E0825046F000E0921056F000E0A2195
:1032A600066F800E0B21076F000E001B000E011B20
:1032B600000E021B800E031B000E041B000E051BD6
:1032C600000E061B800E071B0451005D05510159B7
:1032D6000651025907510359D8B002D0D8901200AE
:1032E600D8801200000E0114096E000E02140A6E38
:1032F600800E03140B6E7F0E04140C6E09500A1018
:103306000B100C10D8A408D0000E016E000E026E31
:10331600000E036E000E046E000E0514096E000EFC
:1033260006140A6E800E07140B6E7F0E08140C6EC0
:1033360009500A100B100C10D8A408D0000E056E08
:10334600000E066E000E076E000E086E04AE1DD04F
:1033560001C009F002C00AF003C00BF004C00CF073
:10336600091E0A1E0B1E0C1E092A000E0A220B221B
:103376000C22000E0924016E000E0A20026E000EB9
:103386000B20036E800E0C20046E08AE1DD005C007
:1033960009F006C00AF007C00BF008C00CF0091EC1
:1033A6000A1E0B1E0C1E092A000E0A220B220C22D4
:1033B600000E0924056E000E0A20066E000E0B2074
:1033C600076E800E0C20086E000E011A000E021AFF
:1033D600000E031A800E041A000E051A000E061AB5
:1033E600000E071A800E081A0550015C0650025896
:1033F6000750035808500458D8B002D0D89012008D
:10340600D88012000600FACFB5F0FBCFB6F0E9CFB0
:10341600B7F0EACFB8F0E1CFB9F0E2CFBAF0D9CF42
:10342600BBF0DACFBCF0F3CFBDF0F4CFBEF0F6CFF1
:10343600BFF0F7CFC0F0F8CFC1F0F5CFC2F05EC055
:10344600C3F05FC0C4F060C0C5F061C0C6F09EAAFC
:1034560040D0AECFD3F083C084F082C083F081C069
:1034660082F080C081F07FC080F07EC07FF07DC09A
:103476007EF07CC07DF07BC07CF07AC07BF0D3C050
:103486007AF000017E29D8A424D0AA0E7F19D8A4E8
:1034960020D07DC0D4F07CC0D5F07BC0D6F07AC0F9
:1034A600D7F0C70E516E000E526E910E536E080E77
:1034B600546ED4C055F0D5C056F0D6C057F0D7C01C
:1034C60058F04BEC04F0C70E046E000E056EAFEC20
:1034D6001DF0C6C061F0C5C060F0C4C05FF0C3C0D7
:1034E6005EF0C2C0F5FFC1C0F8FFC0C0F7FFBFC0A5
:1034F600F6FFBEC0F4FFBDC0F3FFBCC0DAFFBBC021
:10350600D9FFBAC0E2FFB9C0E1FFB8C0EAFFB7C051
:10351600E9FFB6C0FBFFB5C0FAFF5E921100333477
:1035260034343A6E3A50D8A409D0000E316E000EEB
:10353600326E000E336E000E346E120031C035F05E
:1035460032C036F033C037F034C038F0200E05D024
:10355600D8903832373236323532E82EF9D73550F0
:10356600396E338EFF0E3116FF0E3216FF0E3316EE
:10357600000E3416960E3A5E3AAE16D03A50800ACF
:10358600970FD8B009D0000E316E000E326E000EC5
:10359600336E000E346E1200D8903432333232322B
:1035A60031323A3EF9D715D01F0E3A640FD0000ECD
:1035B600316E000E326E000E336E000E346E120047
:1035C600D89031363236333634363A063A50D8A4A5
:1035D600F7D73950D8B408D0341E331E321E316C9A
:1035E600000E32223322342231C031F032C032F0A2
:1035F60033C033F034C034F01200F00E936E000E78
:10360600956E35EC1DF00F0EA9EC1CF0D2EC1DF0FA
:103616005FEC13F0300E0101256F010E266F75EC7D
:103626001DF025C129F126C12AF127C12BF128C198
:103636002CF1AA0E16EC1EF0FF0E16EC1EF0010180
:10364600295116EC1EF001012A5116EC1EF001015B
:103656002B5116EC1EF001012C5116EC1EF05FECFE
:1036660013F0300E0101256F010E266F75EC1DF06B
:1036760025C129F126C12AF127C12BF128C12CF138
:103686000101295116EC1EF001012A5116EC1EF01B
:1036960001012B5116EC1EF001012C5116EC1EF007
:1036A60001012D5116EC1EF0F9EC1DF001012F6FF2
:1036B6000FEC1EF0000E01012F6F000E2E6F000E94
:1036C6002D6F000E00019B6F000E9A6F000E996F12
:1036D6009FD7000E0C6E0AAE06D0096C0A1ED8B033
:1036E6000A2A010E0C6E08AE06D0076C081ED8B06A
:1036F600082A010E0C1A000E0E6E000E0D6E0950F1
:103706000A10D8B41CD0010E0B6E04D0D89009361E
:103716000A360B2A0AAEFAD7D8900D360E3609505D
:10372600075C0A500858D8A005D00950075E0A5011
:10373600085A0D80D8900A3209320B2EEDD70C505C
:10374600D8B404D00D6C0E1ED8B00E2A0DC007F0EA
:103756000EC008F01200000E096E000E0A6E000E72
:103766000B6E000E0C6E0550061007100810D8B42C
:103776002AD0010E0D6E06D0D890053606360736CD
:1037860008360D2A08AEF8D7D89009360A360B3611
:103796000C360550015C0650025807500358085075
:1037A6000458D8A009D00550015E0650025A0750A9
:1037B600035A0850045A0980D89008320732063254
:1037C60005320D2EE1D709C001F00AC002F00BC088
:1037D60003F00CC004F01200000E066E02AE06D016
:1037E600016C021ED8B0022A010E066E04AE04D089
:1037F600036C041ED8B0042A03500410D8B418D0A1
:10380600010E056E04D0D89003360436052A04AEA0
:10381600FAD70350015C04500258D8A004D00350D4
:10382600015E0450025AD89004320332052EF1D7B5
:103836000650D8B404D0016C021ED8B0022A01C0CA
:1038460001F002C002F01200055006100710081021
:10385600D8B424D0010E096E06D0D89005360636A7
:1038660007360836092A08AEF8D70550015C065017
:1038760002580750035808500458D8A008D00550DD
:10388600015E0650025A0750035A0850045AD8904F
:103896000832073206320532092EE7D701C001F099
:1038A60002C002F003C003F004C004F01200000ED0
:1038B6000101086F000E096F000E0A6F000E0B6FF4
:1038C60000A108D0045108270551092306510A23EF
:1038D60007510B23D8900437053706370737D8909A
:1038E6000333023301330033005101110211031176
:1038F600D8A4E6D708C100F109C101F10AC102F155
:103906000BC103F11200000E4D1A000E4E1A000EE6
:103916004F1A800E501A49C035F04AC036F04BC0D7
:1039260037F04CC038F04DC039F04EC03AF04FC0B9
:103936003BF050C03CF021EC0FF035C049F036C0EA
:103946004AF037C04BF038C04CF012000101026F4C
:1039560083900F0E831601010251F00B8312EEECD9
:103966001DF00F0E831602C101F10F0E01010117A2
:103976000139F00B8312EEEC1DF01200010100512B
:10398600011102110311D8B408D0000E001B000E5D
:10399600011B000E021B800E031B00C100F101C1BA
:1039A60001F102C102F103C103F112000101026F2C
:1039B60083800F0E831601010251F00B8312EEEC89
:1039C6001DF00F0E831602C101F10F0E0101011742
:1039D6000139F00B8312EEEC1DF0120091EC14F09D
:1039E6000101046F0429D8A4F9D7070E0101036F5A
:1039F6007D0EE82EFED7032FFCD791EC14F00101C3
:103A0600046F0429D8B41200E9D70150021003103C
:103A16000410D8B408D0000E011A000E021A000EC7
:103A2600031A800E041A01C001F002C002F003C09E
:103A360003F004C004F0120001EE2DF01C0EEE6A35
:103A4600E806FDE100EE60F03C0EEE6AE806FDE1F8
:103A56005D6A5C6A5B6A5E905E92000EF86E0001BB
:103A660000EF1BF0300EE2EC1DF0200EE2EC1DF034
:103A7600280EA9EC1CF00E0EA9EC1CF0010EA9EC08
:103A86001CF0060EA9EC1CF0800EA9EC1CF012002E
:103A96000101026F010E0101016F200E0219D8B457
:103AA60008D00E0E026103D0090E026102D0000E8C
:103AB600016F01C100F100311200036E83800F0E09
:103AC60083160350F00B831204EC1EF00F0E8316C0
:103AD60003C002F00F0E02160238F00B831204EC3C
:103AE6001EF0120025C119F126C11AF1000E0101BE
:103AF6001B6F000E1C6F8DEC07F019C125F11AC162
:103B060026F11BC127F11CC128F112000AD003C1FE
:103B1600D9FF04C1DAFFDF50D9EC1CF00101034BD9
:103B2600042B03C1D9FF04C1DAFFDF50D8B4120059
:103B3600EED701500302F3CF05F0F4CF06F00150A3
:103B46000402F350062602500302F350062605C06F
:103B560001F006C002F0120009D004C0D9FF05C06A
:103B6600DAFFDF5060EC1DF0044A052A04C0D9FFD5
:103B760005C0DAFFDF50D8B41200EFD70101026F9B
:103B8600000E0101016F3A0E026105D02F0E02658B
:103B960002D0010E016F01C100F100311200948EB6
:103BA600949CAC9CAC8AAC98AC94AB8EAB88B89623
:103BB6001F0EAF6E9E9A9D8AF28EF28C1200010144
:103BC600016F83900F0E831601010151F00B8312D2
:103BD600EEEC1DF012008382070E0101006F7D0ED0
:103BE600E82EFED7002FFCD783921200F1EC1CF0D2
:103BF60091EC14F00101056F0529D8B4F9D70551E8
:103C060012008382070E016E7D0EE82EFED7012E6E
:103C1600FCD700F083921200010EA9EC1CF0020EF4
:103C2600A9EC1CF012000101006F00C1ADFFACB29F
:043C36001200FDD7A4
:020000040020DA
:08000000FFFFFFFFFFFFFFFF00
:020000040030CA
:0E00000000001E04FF0181FF0CC00FE00F4046
:00000001FF
